{
  "contractName": "TokenContract",
  "abi": [
    {
      "constant": false,
      "inputs": [],
      "name": "renounceOwnership",
      "outputs": [],
      "payable": false,
      "stateMutability": "nonpayable",
      "type": "function"
    },
    {
      "constant": true,
      "inputs": [],
      "name": "owner",
      "outputs": [
        {
          "name": "",
          "type": "address"
        }
      ],
      "payable": false,
      "stateMutability": "view",
      "type": "function"
    },
    {
      "constant": true,
      "inputs": [],
      "name": "isOwner",
      "outputs": [
        {
          "name": "",
          "type": "bool"
        }
      ],
      "payable": false,
      "stateMutability": "view",
      "type": "function"
    },
    {
      "constant": false,
      "inputs": [
        {
          "name": "newOwner",
          "type": "address"
        }
      ],
      "name": "transferOwnership",
      "outputs": [],
      "payable": false,
      "stateMutability": "nonpayable",
      "type": "function"
    },
    {
      "inputs": [],
      "payable": false,
      "stateMutability": "nonpayable",
      "type": "constructor"
    },
    {
      "anonymous": false,
      "inputs": [
        {
          "indexed": true,
          "name": "previousOwner",
          "type": "address"
        },
        {
          "indexed": true,
          "name": "newOwner",
          "type": "address"
        }
      ],
      "name": "OwnershipTransferred",
      "type": "event"
    },
    {
      "constant": false,
      "inputs": [
        {
          "name": "to",
          "type": "address"
        },
        {
          "name": "amount",
          "type": "uint256"
        }
      ],
      "name": "mintToken",
      "outputs": [],
      "payable": false,
      "stateMutability": "nonpayable",
      "type": "function"
    },
    {
      "constant": true,
      "inputs": [],
      "name": "getTotalSupply",
      "outputs": [
        {
          "name": "",
          "type": "uint256"
        }
      ],
      "payable": false,
      "stateMutability": "view",
      "type": "function"
    },
    {
      "constant": false,
      "inputs": [
        {
          "name": "minter",
          "type": "address"
        }
      ],
      "name": "removeMinterFromTrustedList",
      "outputs": [],
      "payable": false,
      "stateMutability": "nonpayable",
      "type": "function"
    },
    {
      "constant": false,
      "inputs": [
        {
          "name": "minter",
          "type": "address"
        }
      ],
      "name": "addMinterToTrustedList",
      "outputs": [],
      "payable": false,
      "stateMutability": "nonpayable",
      "type": "function"
    },
    {
      "constant": true,
      "inputs": [],
      "name": "listMinters",
      "outputs": [
        {
          "name": "",
          "type": "address[]"
        }
      ],
      "payable": false,
      "stateMutability": "view",
      "type": "function"
    },
    {
      "constant": true,
      "inputs": [
        {
          "name": "index",
          "type": "uint256"
        }
      ],
      "name": "getMinterAtIndex",
      "outputs": [
        {
          "name": "",
          "type": "address"
        }
      ],
      "payable": false,
      "stateMutability": "view",
      "type": "function"
    },
    {
      "constant": true,
      "inputs": [],
      "name": "getNumberOfMinters",
      "outputs": [
        {
          "name": "",
          "type": "uint256"
        }
      ],
      "payable": false,
      "stateMutability": "view",
      "type": "function"
    },
    {
      "constant": true,
      "inputs": [
        {
          "name": "minter",
          "type": "address"
        }
      ],
      "name": "isAddressListedAsMinter",
      "outputs": [
        {
          "name": "",
          "type": "bool"
        }
      ],
      "payable": false,
      "stateMutability": "view",
      "type": "function"
    }
  ],
  "bytecode": "0x608060405234801561001057600080fd5b50336000806101000a81548173ffffffffffffffffffffffffffffffffffffffff021916908373ffffffffffffffffffffffffffffffffffffffff1602179055506000809054906101000a900473ffffffffffffffffffffffffffffffffffffffff1673ffffffffffffffffffffffffffffffffffffffff16600073ffffffffffffffffffffffffffffffffffffffff167f8be0079c531659141344cd1fd0a4f28419497f9722a3daafe3b4186f6b6457e060405160405180910390a360646002819055506064600360003373ffffffffffffffffffffffffffffffffffffffff1673ffffffffffffffffffffffffffffffffffffffff16815260200190815260200160002081905550610f5f806101296000396000f3fe6080604052600436106100ba576000357c0100000000000000000000000000000000000000000000000000000000900463ffffffff16806320e1958e146100bf57806322d8dc23146101105780636b5445ad1461017c578063715018a6146101cd57806379c65068146101e457806386cd71be1461023f5780638da5cb5b1461026a5780638f32d59b146102c1578063c4e41b22146102f0578063d06f62d61461031b578063d17e9bfc14610396578063f2fde38b146103ff575b600080fd5b3480156100cb57600080fd5b5061010e600480360360208110156100e257600080fd5b81019080803573ffffffffffffffffffffffffffffffffffffffff169060200190929190505050610450565b005b34801561011c57600080fd5b506101256104e4565b6040518080602001828103825283818151815260200191508051906020019060200280838360005b8381101561016857808201518184015260208101905061014d565b505050509050019250505060405180910390f35b34801561018857600080fd5b506101cb6004803603602081101561019f57600080fd5b81019080803573ffffffffffffffffffffffffffffffffffffffff1690602001909291905050506104f5565b005b3480156101d957600080fd5b506101e2610588565b005b3480156101f057600080fd5b5061023d6004803603604081101561020757600080fd5b81019080803573ffffffffffffffffffffffffffffffffffffffff169060200190929190803590602001909291905050506106c3565b005b34801561024b57600080fd5b50610254610825565b6040518082815260200191505060405180910390f35b34801561027657600080fd5b5061027f610836565b604051808273ffffffffffffffffffffffffffffffffffffffff1673ffffffffffffffffffffffffffffffffffffffff16815260200191505060405180910390f35b3480156102cd57600080fd5b506102d661085f565b604051808215151515815260200191505060405180910390f35b3480156102fc57600080fd5b506103056108b6565b6040518082815260200191505060405180910390f35b34801561032757600080fd5b506103546004803603602081101561033e57600080fd5b81019080803590602001909291905050506108c0565b604051808273ffffffffffffffffffffffffffffffffffffffff1673ffffffffffffffffffffffffffffffffffffffff16815260200191505060405180910390f35b3480156103a257600080fd5b506103e5600480360360208110156103b957600080fd5b81019080803573ffffffffffffffffffffffffffffffffffffffff1690602001909291905050506108dd565b604051808215151515815260200191505060405180910390f35b34801561040b57600080fd5b5061044e6004803603602081101561042257600080fd5b81019080803573ffffffffffffffffffffffffffffffffffffffff1690602001909291905050506108fa565b005b61045861085f565b15156104cc576040517f08c379a00000000000000000000000000000000000000000000000000000000081526004018080602001828103825260208152602001807f4f776e61626c653a2063616c6c6572206973206e6f7420746865206f776e657281525060200191505060405180910390fd5b6104e081600161098290919063ffffffff16565b5050565b60606104f06001610b10565b905090565b6104fd61085f565b1515610571576040517f08c379a00000000000000000000000000000000000000000000000000000000081526004018080602001828103825260208152602001807f4f776e61626c653a2063616c6c6572206973206e6f7420746865206f776e657281525060200191505060405180910390fd5b610585816001610ba290919063ffffffff16565b50565b61059061085f565b1515610604576040517f08c379a00000000000000000000000000000000000000000000000000000000081526004018080602001828103825260208152602001807f4f776e61626c653a2063616c6c6572206973206e6f7420746865206f776e657281525060200191505060405180910390fd5b600073ffffffffffffffffffffffffffffffffffffffff166000809054906101000a900473ffffffffffffffffffffffffffffffffffffffff1673ffffffffffffffffffffffffffffffffffffffff167f8be0079c531659141344cd1fd0a4f28419497f9722a3daafe3b4186f6b6457e060405160405180910390a360008060006101000a81548173ffffffffffffffffffffffffffffffffffffffff021916908373ffffffffffffffffffffffffffffffffffffffff160217905550565b6106d7336001610c1f90919063ffffffff16565b1515610771576040517f08c379a00000000000000000000000000000000000000000000000000000000081526004018080602001828103825260308152602001807f5468652073656e6465722061646472657373206973206e6f742072656769737481526020017f657265642061732061204d696e7465720000000000000000000000000000000081525060400191505060405180910390fd5b61078681600254610cc990919063ffffffff16565b6002819055506107de81600360008573ffffffffffffffffffffffffffffffffffffffff1673ffffffffffffffffffffffffffffffffffffffff16815260200190815260200160002054610cc990919063ffffffff16565b600360008473ffffffffffffffffffffffffffffffffffffffff1673ffffffffffffffffffffffffffffffffffffffff168152602001908152602001600020819055505050565b60006108316001610d53565b905090565b60008060009054906101000a900473ffffffffffffffffffffffffffffffffffffffff16905090565b60008060009054906101000a900473ffffffffffffffffffffffffffffffffffffffff1673ffffffffffffffffffffffffffffffffffffffff163373ffffffffffffffffffffffffffffffffffffffff1614905090565b6000600254905090565b60006108d6826001610d6490919063ffffffff16565b9050919050565b60006108f3826001610c1f90919063ffffffff16565b9050919050565b61090261085f565b1515610976576040517f08c379a00000000000000000000000000000000000000000000000000000000081526004018080602001828103825260208152602001807f4f776e61626c653a2063616c6c6572206973206e6f7420746865206f776e657281525060200191505060405180910390fd5b61097f81610daa565b50565b600080600090505b61099384610d53565b811015610b04578273ffffffffffffffffffffffffffffffffffffffff1684600001828154811015156109c257fe5b9060005260206000200160009054906101000a900473ffffffffffffffffffffffffffffffffffffffff1673ffffffffffffffffffffffffffffffffffffffff161415610af757836000016001610a1886610d53565b03815481101515610a2557fe5b9060005260206000200160009054906101000a900473ffffffffffffffffffffffffffffffffffffffff168460000182815481101515610a6157fe5b9060005260206000200160006101000a81548173ffffffffffffffffffffffffffffffffffffffff021916908373ffffffffffffffffffffffffffffffffffffffff160217905550836000018054801515610ab857fe5b6001900381819060005260206000200160006101000a81549073ffffffffffffffffffffffffffffffffffffffff021916905590556001915050610b0a565b808060010191505061098a565b50600090505b92915050565b606081600001805480602002602001604051908101604052809291908181526020018280548015610b9657602002820191906000526020600020905b8160009054906101000a900473ffffffffffffffffffffffffffffffffffffffff1673ffffffffffffffffffffffffffffffffffffffff1681526020019060010190808311610b4c575b50505050509050919050565b610bac8282610c1f565b1515610c1b57816000018190806001815401808255809150509060018203906000526020600020016000909192909190916101000a81548173ffffffffffffffffffffffffffffffffffffffff021916908373ffffffffffffffffffffffffffffffffffffffff160217905550505b5050565b600080600090505b610c3084610d53565b811015610cbd578273ffffffffffffffffffffffffffffffffffffffff168460000182815481101515610c5f57fe5b9060005260206000200160009054906101000a900473ffffffffffffffffffffffffffffffffffffffff1673ffffffffffffffffffffffffffffffffffffffff161415610cb0576001915050610cc3565b8080600101915050610c27565b50600090505b92915050565b6000808284019050838110151515610d49576040517f08c379a000000000000000000000000000000000000000000000000000000000815260040180806020018281038252601b8152602001807f536166654d6174683a206164646974696f6e206f766572666c6f77000000000081525060200191505060405180910390fd5b8091505092915050565b600081600001805490509050919050565b60008260000182815481101515610d7757fe5b9060005260206000200160009054906101000a900473ffffffffffffffffffffffffffffffffffffffff16905092915050565b600073ffffffffffffffffffffffffffffffffffffffff168173ffffffffffffffffffffffffffffffffffffffff1614151515610e75576040517f08c379a00000000000000000000000000000000000000000000000000000000081526004018080602001828103825260268152602001807f4f776e61626c653a206e6577206f776e657220697320746865207a65726f206181526020017f646472657373000000000000000000000000000000000000000000000000000081525060400191505060405180910390fd5b8073ffffffffffffffffffffffffffffffffffffffff166000809054906101000a900473ffffffffffffffffffffffffffffffffffffffff1673ffffffffffffffffffffffffffffffffffffffff167f8be0079c531659141344cd1fd0a4f28419497f9722a3daafe3b4186f6b6457e060405160405180910390a3806000806101000a81548173ffffffffffffffffffffffffffffffffffffffff021916908373ffffffffffffffffffffffffffffffffffffffff1602179055505056fea165627a7a723058203143b951dd051f333b993af4ef542c7b218a80c3e3cd9632e1546b701d9cfd800029",
  "source": "/*\r\n\r\n  Unless required by applicable law or agreed to in writing, software\r\n  distributed under the License is distributed on an \"AS IS\" BASIS,\r\n  WITHOUT WARRANTIES OR CONDITIONS OF ANY KIND, either express or implied.\r\n  See the License for the specific language governing permissions and\r\n  limitations under the License.\r\n\r\n*/\r\n\r\npragma solidity >= 0.4.25 < 0.6.0;\r\n\r\nimport '../node_modules/openzeppelin-solidity/contracts/ownership/Ownable.sol';\r\nimport '../node_modules/openzeppelin-solidity/contracts/math/SafeMath.sol';\r\nimport './AddrArrayLib.sol';\r\n\r\ncontract TokenContract is Ownable {\r\n    using AddrArrayLib for AddrArrayLib.Addresses;\r\n    using SafeMath for uint256;\r\n\r\n    // List of trusted addresses which can mint tokens\r\n    AddrArrayLib.Addresses trustedMinters;\r\n\r\n    uint256 private totalSupply;\r\n    mapping (address => uint256) balances;\r\n\r\n    constructor () public {\r\n        totalSupply = 100;\r\n        balances[msg.sender] = 100;\r\n    }\r\n\r\n    function mintToken(address to, uint256 amount) external {\r\n        require(trustedMinters.exists(msg.sender), 'The sender address is not registered as a Minter');\r\n        totalSupply = totalSupply.add(amount);\r\n        balances[to] = balances[to].add(amount);\r\n    }\r\n\r\n    function getTotalSupply() external view returns (uint256) {\r\n        return totalSupply;\r\n    }\r\n\r\n    function removeMinterFromTrustedList(address minter) public onlyOwner() {\r\n        trustedMinters.removeAddress(minter);\r\n    }\r\n\r\n    function addMinterToTrustedList(address minter) public onlyOwner() {\r\n        trustedMinters.pushAddress(minter);\r\n    }\r\n\r\n    function listMinters() public view returns(address[] memory) {\r\n        return trustedMinters.getAllAddresses();\r\n    }\r\n\r\n    function getMinterAtIndex(uint256 index) public view returns(address) {\r\n        return trustedMinters.getAddressAtIndex(index);\r\n    }\r\n\r\n    function getNumberOfMinters() public view returns(uint256) {\r\n        return trustedMinters.size();\r\n    }\r\n\r\n    function isAddressListedAsMinter(address minter) public view returns(bool) {\r\n        return trustedMinters.exists(minter);\r\n    }\r\n\r\n}\r\n",
  "sourcePath": "C:/Users/MajdTL/Desktop/Artikel 1/GithubRepo/Address-Library-Sample/contracts/TokenContract.sol",
  "compiler": {
    "name": "solc",
    "version": "0.5.0+commit.1d4f565a.Emscripten.clang"
  },
  "schemaVersion": "3.0.6",
  "updatedAt": "2019-09-17T12:29:31.932Z",
  "devdoc": {
    "methods": {
      "isOwner()": {
        "details": "Returns true if the caller is the current owner."
      },
      "owner()": {
        "details": "Returns the address of the current owner."
      },
      "renounceOwnership()": {
        "details": "Leaves the contract without owner. It will not be possible to call `onlyOwner` functions anymore. Can only be called by the current owner.     * > Note: Renouncing ownership will leave the contract without an owner, thereby removing any functionality that is only available to the owner."
      },
      "transferOwnership(address)": {
        "details": "Transfers ownership of the contract to a new account (`newOwner`). Can only be called by the current owner."
      }
    }
  },
  "userdoc": {
    "methods": {}
  }
}